:10043000496E7075742050617373776F7264200019
:1004400070617373776F726420636F727265637427
:100450000070617373776F7264206572726F7200DF
:1001C100E4F518F519F51AF51B1204D47BFF7A042E
:1001D10079307D017F011204601200038E1C8F1D96
:1001E100E51DF47003E51CF460EFC3E51D940AE519
:1001F1001C64809480503CC3E5199404E518940074
:100201005031AE1AAF1B7C007D0A1202EB8E1A8FA1
:100211001BE51D251BF51BE51C351AF51A0519E50E
:100221001970020518750C04AB1BAA1A7D017F0217
:100231001204A1E51D640A451C705BE519640445BF
:100241001870961204D4E51BB4220DE51AB4050802
:100251007BFF7A04794080067BFF7A0479517D0126
:100261007F01120460750C04AB1BAA1A7D017F0289
:100271001204A17FD07E071204E81204D47BFF7A16
:100281000479307D017F01120460E4F51AF51BF554
:1002910018F5190201DAE51D640B451C6003020122
:1002A100DA1204D47BFF7A0479307D017F011204D4
:0D02B10060E4F51AF51BF518F5190201DAE5
:0604FC00C2A58F80D2A70B
:080502007F027EEFDEFEDFFC4C
:01050A0022CE
:0A051700C2A61204FCC2A7020502EE
:10048300CFCDCFCECCCE1202FD7C007D0A1202FD71
:04049300ED2430FF25
:0A049700D2A61204FCC2A70205025F
:1004BE00AE07BE0104ED148006BE0209ED243F44D2
:0604CE0080FF1205172259
:1004D4007F381205177F0C1205177F061205177F48
:0404E40001020517F5
:0A052100AC031204BEAF04020497FD
:060460008B088A09890ADD
:100466001204BEE4FDAB08AA09A90A8D82758300B1
:0C0476001202BEFF60061204970D80E920
:010482002257
:0C03FD007F0AEA24FFFDE434FFFC7E00D0
:080409008E0D8F0E8C0F8D107B
:100411007F017E00E4FBEBC39510E50F6480F87467
:0E0421008098500AAC0DAD0E1202EB0B80E875
:01042F0022AA
:0404A1008A0A8B0B2D
:1004A5001204BEAA0CEAD39400400D1203FDAC0A57
:0804B500AD0B1204831A80ED67
:0104BD00221C
:100352001204BEC3EA64809480400B7F2B12049780
:100362008A168B17800E7F2D120497C3E49BF51714
:10037200E49AF516AA15EAD39400400D1203FDACD7
:0903820016AD171204831A80ED78
:01038B00224F
:04038C008A208B2117
:100390001204BEAA22EAD3940040297F101203FF60
:1003A000AC20AD21CFCDCFCECCCE1202FDEF540F7D
:1003B000FEC3940AEE5004243080022437FF120456
:0403C000971A80D137
:0103C4002216
:0403C5008A258B26D4
:1003C9001204BEAA27EAD394004028EA24FFFDE4D8
:1003D90034FFFC7F027E00120409AC25AD26CFCD87
:1003E900CFCECCCE1202FDEF54012430FF12049778
:0303F9001A80D295
:0103FC0022DE
:100003007590FF74FFF528F529C2972093167F1486
:100013007E001204E83093FD7F147E001204E8E4AE
:10002300F528F5292092177F147E001204E83092F8
:10003300FD7F147E001204E87528007529012091C4
:10004300177F147E001204E83091FD7F147E0012A6
:1000530004E87528007529022090177F147E00128A
:1000630004E83090FD7F147E001204E875280075C3
:1000730029037590FFC2962093177F147E00120404
:10008300E83093FD7F147E001204E875280075297B
:10009300042092177F147E001204E83092FD7F142F
:1000A3007E001204E87528007529052091177F1436
:1000B3007E001204E83091FD7F147E001204E8757F
:1000C30028007529062090177F147E001204E8305B
:1000D30090FD7F147E001204E875280075290775CA
:1000E30090FFC2952093177F147E001204E830938B
:1000F300FD7F147E001204E87528007529082092FC
:10010300177F147E001204E83092FD7F147E0012E4
:1001130004E87528007529092091177F147E0012C1
:1001230004E83091FD7F147E001204E87528007501
:10013300290A2090177F147E001204E83090FD7F77
:10014300147E001204E875280075290B7590FFC210
:10015300942093177F147E001204E83093FD7F14DC
:100163007E001204E875280075290C2092177F146D
:100173007E001204E83092FD7F147E001204E875BD
:10018300280075290D2091177F147E001204E83092
:1001930091FD7F147E001204E875280075290E2056
:1001A30090177F147E001204E83090FD7F147E00C8
:0E01B3001204E875280075290FAE28AF292226
:1004E800EF4E600F7D027CEFDCFEDDFCEF1F70F04D
:0304F8001E80ED76
:0104FB0022DE
:0300000002050BEB
:0C050B00787FE4F6D8FD7581290201C15B
:1002BE00BB010CE58229F582E5833AF583E02250F5
:1002CE0006E92582F8E622BBFE06E92582F8E2223F
:0D02DE00E58229F582E5833AF583E4932259
:1002EB00EF8DF0A4A8F0CF8CF0A428CE8DF0A42E27
:0202FB00FE22E1
:1002FD00BC000BBE0029EF8DF084FFADF022E4CCE5
:10030D00F875F008EF2FFFEE33FEEC33FCEE9DECAD
:10031D00984005FCEE9DFE0FD5F0E9E4CEFD22EDF3
:10032D00F8F5F0EE8420D21CFEADF075F008EF2F3D
:10033D00FFED33FD4007985006D5F0F222C398FD2E
:05034D000FD5F0EA22CB
:00000001FF
