:0C0143000A083F065B4F666D7D077F6F6A
:04010D007C007F02F1
:10011100EF24FE600B04700ED2A4D2A3D2A28006FB
:0E012100D2A4D2A3C2A274082DF8E6F5802263
:10008F00E4FDFC7F021201117FE87E0312012F7D38
:10009F000112010D7FE87E0312012F7D0212010D67
:1000AF007FE87E0312012F7D0312010D7FE87E038F
:1000BF0012012F7D0412010D7FE87E0312012F7DA7
:1000CF000512010D7FE87E0312012F7D0612010D2F
:1000DF007FE87E0312012F7D0712010D7FE87E035B
:1000EF0012012F7D0812010D7FE87E0312012F7D73
:0E00FF000912010D7FE87E0312012F02008F0F
:10012F00EF4E600F7D027CEFDCFEDDFCEF1F70F009
:03013F001E80ED32
:01014200229A
:03000000020003F8
:0C000300787FE4F6D8FD75811102004AF8
:10000F0002008FE493A3F8E493A34003F68001F278
:10001F0008DFF48029E493A3F85407240CC8C333F2
:10002F00C4540F4420C8834004F456800146F6DFC1
:10003F00E4800B0102040810204080900143E47E0D
:10004F00019360BCA3FF543F30E509541FFEE493B6
:10005F00A360010ECF54C025E060A840B8E493A37D
:10006F00FAE493A3F8E493A3C8C582C8CAC583CAA8
:10007F00F0A3C8C582C8CAC583CADFE9DEE780BE60
:01014F0000AF
:00000001FF
