:0B041B004D61747269784B65793A00FE
:100333001203EC7BFF7A04791B7D017F01120364B6
:100343001200038E228F23E523F47003E522F46069
:10035300EF750C02AB23AA227D017F0212028F806C
:01036300DFBA
:1003D800EF4E600F7D027CEFDCFEDDFCEF1F70F05E
:0303E8001E80ED87
:0103EB0022EF
:06040000C2A58F80D2A707
:080406007F027EEFDEFEDFFC49
:01040E0022CB
:0A042600C2A6120400C2A7020406D9
:10038700CFCDCFCECCCE1202007C007D0A12020068
:04039700ED2430FF22
:0A039B00D2A6120400C2A702040655
:1003C200AE07BE0104ED148006BE0209ED243F44CF
:0603D20080FF1204262248
:1003EC007F381204267F0C1204267F061204267F07
:0403FC0001020426D0
:0A043000AC031203C2AF0402039BE9
:060364008B088A09890ADA
:10036A001203C2E4FDAB08AA09A90A8D82758300AB
:0C037A001201C1FF600612039B0D80E918
:010386002254
:0C0300007F0AEA24FFFDE434FFFC7E00CD
:08030C008E0D8F0E8C0F8D1079
:100314007F017E00E4FBEBC39510E50F6480F87465
:0E0324008098500AAC0DAD0E1201EE0B80E871
:0103320022A8
:0403A5008A1A8B1B0A
:1003A9001203C2AA1CEAD39400400D120300AC1A2E
:0803B900AD1B1203871A80ED51
:0103C1002219
:100255001203C2C3EA64809480400B7F2B12039B78
:100265008A168B17800E7F2D12039BC3E49BF5170F
:10027500E49AF516AA15EAD39400400D120300ACD2
:0902850016AD171203871A80ED73
:01028E00224D
:04028F008A0A8B0B41
:100293001203C2AA0CEAD3940040297F101203026E
:1002A300AC0AAD0BCFCDCFCECCCE120200EF540FA4
:1002B300FEC3940AEE5004243080022437FF120355
:0402C3009B1A80D131
:0102C7002214
:0402C8008A1F8B20DE
:1002CC001203C2AA21EAD394004028EA24FFFDE4D9
:1002DC0034FFFC7F027E0012030CAC1FAD20CFCD8F
:1002EC00CFCECCCE120200EF54012430FF12039B70
:0302FC001A80D293
:0102FF0022DC
:100003007590FF74FFF524F525C2972093167F148E
:100013007E001203D83093FD7F147E001203D8E4D0
:10002300F524F5252092177F147E001203D8309211
:10003300FD7F147E001203D87524007525012091DD
:10004300177F147E001203D83091FD7F147E0012B7
:1000530003D87524007525022090177F147E0012A3
:1000630003D83090FD7F147E001203D875240075E9
:1000730025037590FFC2962093177F147E00120309
:10008300D83093FD7F147E001203D87524007525A4
:10009300042092177F147E001203D83092FD7F1440
:1000A3007E001203D87524007525052091177F144F
:1000B3007E001203D83091FD7F147E001203D875A1
:1000C30024007525062090177F147E001203D83074
:1000D30090FD7F147E001203D875240075250775E3
:1000E30090FFC2952093177F147E001203D830939C
:1000F300FD7F147E001203D8752400752508209215
:10010300177F147E001203D83092FD7F147E0012F5
:1001130003D87524007525092091177F147E0012DA
:1001230003D83091FD7F147E001203D87524007527
:10013300250A2090177F147E001203D83090FD7F8C
:10014300147E001203D875240075250B7590FFC229
:10015300942093177F147E001203D83093FD7F14ED
:100163007E001203D875240075250C2092177F1486
:100173007E001203D83092FD7F147E001203D875DF
:10018300240075250D2091177F147E001203D830AB
:1001930091FD7F147E001203D875240075250E206F
:1001A30090177F147E001203D83090FD7F147E00D9
:0E01B3001203D875240075250FAE24AF252247
:0300000002040FE8
:0C040F00787FE4F6D8FD758125020333E8
:1001C100BB010CE58229F582E5833AF583E02250F3
:1001D10006E92582F8E622BBFE06E92582F8E2223D
:0D01E100E58229F582E5833AF583E4932257
:1001EE00EF8DF0A4A8F0CF8CF0A428CE8DF0A42E25
:0201FE00FE22DF
:10020000BC000BBE0029EF8DF084FFADF022E4CCE2
:10021000F875F008EF2FFFEE33FEEC33FCEE9DECAB
:10022000984005FCEE9DFE0FD5F0E9E4CEFD22EDF1
:10023000F8F5F0EE8420D21CFEADF075F008EF2F3B
:10024000FFED33FD4007985006D5F0F222C398FD2C
:050250000FD5F0EA22C9
:00000001FF
