:0F0260005069670049204C6F766520596F750013
:100097001202387BFF7A0279607D017F021201C468
:1000A7007FD07E0712024C1202387BFF7A027964F6
:1000B7007D017F011201C47FD07E0712024C7FD0E1
:1000C7007E0712024C120238750C037B647A007D9E
:0F00D700017F021202057FD07E0712024C80B11A
:06026F00C2A58F80D2A79A
:080275007F027EEFDEFEDFFCDC
:01027D00225E
:0A028A00C2A612026FC2A70202759D
:1001E700CFCDCFCECCCE1200427C007D0A1200428A
:0401F700ED2430FFC4
:0A01FB00D2A612026FC2A70202751D
:10022200AE07BE0104ED148006BE0209ED243F4470
:0602320080FF12028A2287
:100238007F3812028A7F0C12028A7F0612028A7F96
:040248000102028A23
:0A029400AC03120222AF040201FBCA
:0601C4008B088A09890A7C
:1001CA00120222E4FDAB08AA09A90A8D82758300EE
:0C01DA00120003FF60061201FB0D80E91B
:0101E60022F6
:0C0191007F0AEA24FFFDE434FFFC7E003E
:08019D008E0D8F0E8C0F8D10EA
:1001A5007F017E00E4FBEBC39510E50F6480F874D6
:0E01B5008098500AAC0DAD0E1200300B80E8A1
:0101C3002219
:040205008A0A8B0BCB
:10020900120222AA0CEAD39400400D120191AC0A01
:08021900AD0B1201E71A80EDA4
:0102210022BA
:1000E600120222C3EA64809480400B7F2B1201FB2C
:1000F6008A168B17800E7F2D1201FBC3E49BF51722
:10010600E49AF516AA15EAD39400400D120191ACB3
:0901160016AD171201E71A80ED85
:01011F0022BD
:040120008A1A8B1B91
:10012400120222AA1CEAD3940040297F10120193E0
:10013400AC1AAD1BCFCDCFCECCCE120042EF540FB4
:10014400FEC3940AEE5004243080022437FF1201C7
:04015400FB1A80D141
:010158002284
:040159008A1F8B204E
:10015D00120222AA21EAD394004028EA24FFFDE4EA
:10016D0034FFFC7F027E0012019DAC1FAD20CFCD70
:10017D00CFCECCCE120042EF54012430FF1201FB42
:03018D001A80D203
:01019000224C
:10024C00EF4E600F7D027CEFDCFEDDFCEF1F70F0EB
:03025C001E80ED14
:01025F00227C
:0300000002027E7B
:0C027E00787FE4F6D8FD7581210200971E
:10000300BB010CE58229F582E5833AF583E02250B2
:1000130006E92582F8E622BBFE06E92582F8E222FC
:0D002300E58229F582E5833AF583E4932216
:10003000EF8DF0A4A8F0CF8CF0A428CE8DF0A42EE4
:02004000FE229E
:10004200BC000BBE0029EF8DF084FFADF022E4CCA2
:10005200F875F008EF2FFFEE33FEEC33FCEE9DEC6B
:10006200984005FCEE9DFE0FD5F0E9E4CEFD22EDB1
:10007200F8F5F0EE8420D21CFEADF075F008EF2FFB
:10008200FFED33FD4007985006D5F0F222C398FDEC
:050092000FD5F0EA2289
:00000001FF
